{
  "contractName": "CourseMarketplace",
  "abi": [
    {
      "anonymous": false,
      "inputs": [
        {
          "indexed": false,
          "internalType": "uint256",
          "name": "id",
          "type": "uint256"
        },
        {
          "indexed": false,
          "internalType": "string",
          "name": "title",
          "type": "string"
        },
        {
          "indexed": false,
          "internalType": "uint256",
          "name": "price",
          "type": "uint256"
        },
        {
          "indexed": false,
          "internalType": "address",
          "name": "instructor",
          "type": "address"
        }
      ],
      "name": "CourseCreated",
      "type": "event"
    },
    {
      "anonymous": false,
      "inputs": [
        {
          "indexed": false,
          "internalType": "uint256",
          "name": "courseId",
          "type": "uint256"
        },
        {
          "indexed": false,
          "internalType": "address",
          "name": "buyer",
          "type": "address"
        }
      ],
      "name": "CoursePurchased",
      "type": "event"
    },
    {
      "inputs": [],
      "name": "courseCount",
      "outputs": [
        {
          "internalType": "uint256",
          "name": "",
          "type": "uint256"
        }
      ],
      "stateMutability": "view",
      "type": "function"
    },
    {
      "inputs": [
        {
          "internalType": "uint256",
          "name": "",
          "type": "uint256"
        }
      ],
      "name": "courses",
      "outputs": [
        {
          "internalType": "uint256",
          "name": "id",
          "type": "uint256"
        },
        {
          "internalType": "address payable",
          "name": "instructor",
          "type": "address"
        },
        {
          "internalType": "string",
          "name": "title",
          "type": "string"
        },
        {
          "internalType": "string",
          "name": "contentURI",
          "type": "string"
        },
        {
          "internalType": "uint256",
          "name": "price",
          "type": "uint256"
        },
        {
          "internalType": "bool",
          "name": "isPublished",
          "type": "bool"
        }
      ],
      "stateMutability": "view",
      "type": "function"
    },
    {
      "inputs": [
        {
          "internalType": "address",
          "name": "",
          "type": "address"
        },
        {
          "internalType": "uint256",
          "name": "",
          "type": "uint256"
        }
      ],
      "name": "enrolledCourses",
      "outputs": [
        {
          "internalType": "bool",
          "name": "",
          "type": "bool"
        }
      ],
      "stateMutability": "view",
      "type": "function"
    },
    {
      "inputs": [
        {
          "internalType": "string",
          "name": "_title",
          "type": "string"
        },
        {
          "internalType": "string",
          "name": "_contentURI",
          "type": "string"
        },
        {
          "internalType": "uint256",
          "name": "_price",
          "type": "uint256"
        }
      ],
      "name": "createCourse",
      "outputs": [],
      "stateMutability": "nonpayable",
      "type": "function"
    },
    {
      "inputs": [
        {
          "internalType": "uint256",
          "name": "_courseId",
          "type": "uint256"
        }
      ],
      "name": "purchaseCourse",
      "outputs": [],
      "stateMutability": "payable",
      "type": "function"
    },
    {
      "inputs": [
        {
          "internalType": "uint256",
          "name": "_courseId",
          "type": "uint256"
        }
      ],
      "name": "hasPurchased",
      "outputs": [
        {
          "internalType": "bool",
          "name": "",
          "type": "bool"
        }
      ],
      "stateMutability": "view",
      "type": "function"
    }
  ],
  "bytecode": "0x608060405234801561001057600080fd5b50610a2d806100206000396000f3fe6080604052600436106100555760003560e01c806345e689c81461005a578063660551591461009057806396f979d2146100b2578063a4adb24b146100e4578063cd13193814610106578063ea54a32314610119575b600080fd5b34801561006657600080fd5b5061007a610075366004610804565b610139565b6040516100879190610867565b60405180910390f35b34801561009c57600080fd5b506100a5610159565b60405161008791906108ce565b3480156100be57600080fd5b506100d26100cd366004610804565b61015f565b604051610087969594939291906108ee565b3480156100f057600080fd5b506101046100ff36600461079a565b6102b3565b005b610104610114366004610804565b6103cb565b34801561012557600080fd5b5061007a610134366004610764565b61062a565b336000908152600260209081526040808320938352929052205460ff1690565b60005481565b60016020819052600091825260409091208054918101546002820180546001600160a01b0390921692916101929061097f565b80601f01602080910402602001604051908101604052809291908181526020018280546101be9061097f565b801561020b5780601f106101e05761010080835404028352916020019161020b565b820191906000526020600020905b8154815290600101906020018083116101ee57829003601f168201915b5050505050908060030180546102209061097f565b80601f016020809104026020016040519081016040528092919081815260200182805461024c9061097f565b80156102995780601f1061026e57610100808354040283529160200191610299565b820191906000526020600020905b81548152906001019060200180831161027c57829003601f168201915b50505050600483015460059093015491929160ff16905086565b6000805490806102c2836109ba565b90915550506040805160c081018252600080548083523360208085019182528486018981526060860189905260808601889052600160a087018190529385528382529590932084518155905191810180546001600160a01b0319166001600160a01b039093169290921790915592518051929392610346926002850192019061064a565b506060820151805161036291600384019160209091019061064a565b506080820151600482015560a0909101516005909101805460ff19169115159190911790556000546040517f4aef92db777bdc6252138a7a07684420ea0a02c4704c896bfe217e76a33d7e65916103be91869085903390610945565b60405180910390a1505050565b6000818152600160208181526040808420815160c08101835281548152938101546001600160a01b0316928401929092526002820180549184019161040f9061097f565b80601f016020809104026020016040519081016040528092919081815260200182805461043b9061097f565b80156104885780601f1061045d57610100808354040283529160200191610488565b820191906000526020600020905b81548152906001019060200180831161046b57829003601f168201915b505050505081526020016003820180546104a19061097f565b80601f01602080910402602001604051908101604052809291908181526020018280546104cd9061097f565b801561051a5780601f106104ef5761010080835404028352916020019161051a565b820191906000526020600020905b8154815290600101906020018083116104fd57829003601f168201915b50505091835250506004820154602082015260059091015460ff16151560409091015260a081015190915061056a5760405162461bcd60e51b8152600401610561906108a0565b60405180910390fd5b8060800151341461058d5760405162461bcd60e51b815260040161056190610872565b3360009081526002602090815260408083208584528252808320805460ff191660011790559083015190516001600160a01b0391909116913480156108fc02929091818181858888f193505050501580156105ec573d6000803e3d6000fd5b507f8120f2f8a682e2fd88bad8beb5760b02b7fec7a59d2d9bebb84b3e277bc152d2823360405161061e9291906108d7565b60405180910390a15050565b600260209081526000928352604080842090915290825290205460ff1681565b8280546106569061097f565b90600052602060002090601f01602090048101928261067857600085556106be565b82601f1061069157805160ff19168380011785556106be565b828001600101855582156106be579182015b828111156106be5782518255916020019190600101906106a3565b506106ca9291506106ce565b5090565b5b808211156106ca57600081556001016106cf565b600082601f8301126106f3578081fd5b813567ffffffffffffffff8082111561070e5761070e6109e1565b604051601f8301601f191681016020018281118282101715610732576107326109e1565b604052828152848301602001861015610749578384fd5b82602086016020830137918201602001929092529392505050565b60008060408385031215610776578182fd5b82356001600160a01b038116811461078c578283fd5b946020939093013593505050565b6000806000606084860312156107ae578081fd5b833567ffffffffffffffff808211156107c5578283fd5b6107d1878388016106e3565b945060208601359150808211156107e6578283fd5b506107f3868287016106e3565b925050604084013590509250925092565b600060208284031215610815578081fd5b5035919050565b60008151808452815b8181101561084157602081850181015186830182015201610825565b818111156108525782602083870101525b50601f01601f19169290920160200192915050565b901515815260200190565b602080825260149082015273125b98dbdc9c9958dd081d985b1d59481cd95b9d60621b604082015260600190565b602080825260149082015273436f75727365206e6f7420617661696c61626c6560601b604082015260600190565b90815260200190565b9182526001600160a01b0316602082015260400190565b8681526001600160a01b038616602082015260c0604082018190526000906109189083018761081c565b828103606084015261092a818761081c565b6080840195909552505090151560a090910152949350505050565b60008582526080602083015261095e608083018661081c565b6040830194909452506001600160a01b039190911660609091015292915050565b60028104600182168061099357607f821691505b602082108114156109b457634e487b7160e01b600052602260045260246000fd5b50919050565b60006000198214156109da57634e487b7160e01b81526011600452602481fd5b5060010190565b634e487b7160e01b600052604160045260246000fdfea26469706673582212204990871a3c4f71922e465feb4cda17312d99d2658bb2bb4cb1b3be86d9d0cc4464736f6c63430008000033",
  "immutableReferences": {},
  "source": "// SPDX-License-Identifier: MIT\r\npragma solidity ^0.8.0;\r\n\r\ncontract CourseMarketplace {\r\n    struct Course {\r\n        uint id;\r\n        address payable instructor;\r\n        string title;\r\n        string contentURI;\r\n        uint price;\r\n        bool isPublished;\r\n    }\r\n\r\n    uint public courseCount;\r\n    mapping(uint => Course) public courses;\r\n    mapping(address => mapping(uint => bool)) public enrolledCourses;\r\n\r\n    event CourseCreated(uint id, string title, uint price, address instructor);\r\n    event CoursePurchased(uint courseId, address buyer);\r\n\r\n    // Create a new course (only instructors can do this)\r\n    function createCourse(string memory _title, string memory _contentURI, uint _price) public {\r\n        courseCount++;\r\n        courses[courseCount] = Course(courseCount, payable(msg.sender), _title, _contentURI, _price, true);\r\n        emit CourseCreated(courseCount, _title, _price, msg.sender);\r\n    }\r\n\r\n    // Buy a course\r\n    function purchaseCourse(uint _courseId) public payable {\r\n        Course memory course = courses[_courseId];\r\n        require(course.isPublished, \"Course not available\");\r\n        require(msg.value == course.price, \"Incorrect value sent\");\r\n\r\n        enrolledCourses[msg.sender][_courseId] = true;\r\n        course.instructor.transfer(msg.value);\r\n\r\n        emit CoursePurchased(_courseId, msg.sender);\r\n    }\r\n\r\n    // Check if the user has purchased the course\r\n    function hasPurchased(uint _courseId) public view returns (bool) {\r\n        return enrolledCourses[msg.sender][_courseId];\r\n    }\r\n}\r\n",
  "sourcePath": "C:\\Users\\utshav\\Desktop\\course-management-app\\contracts\\CourseMarketplace.sol",
  "compiler": {
    "name": "solc",
    "version": "0.8.0+commit.c7dfd78e.Emscripten.clang"
  },
  "schemaVersion": "3.4.16",
  "updatedAt": "2024-10-22T08:00:38.039Z",
  "devdoc": {
    "kind": "dev",
    "methods": {},
    "version": 1
  },
  "userdoc": {
    "kind": "user",
    "methods": {},
    "version": 1
  }
}