{
  "contractName": "CourseMarketplace",
  "abi": [
    {
      "anonymous": false,
      "inputs": [
        {
          "indexed": false,
          "internalType": "uint256",
          "name": "id",
          "type": "uint256"
        },
        {
          "indexed": false,
          "internalType": "string",
          "name": "title",
          "type": "string"
        },
        {
          "indexed": false,
          "internalType": "uint256",
          "name": "price",
          "type": "uint256"
        },
        {
          "indexed": false,
          "internalType": "address",
          "name": "instructor",
          "type": "address"
        }
      ],
      "name": "CourseCreated",
      "type": "event"
    },
    {
      "anonymous": false,
      "inputs": [
        {
          "indexed": false,
          "internalType": "uint256",
          "name": "courseId",
          "type": "uint256"
        },
        {
          "indexed": false,
          "internalType": "address",
          "name": "buyer",
          "type": "address"
        }
      ],
      "name": "CoursePurchased",
      "type": "event"
    },
    {
      "inputs": [],
      "name": "courseCount",
      "outputs": [
        {
          "internalType": "uint256",
          "name": "",
          "type": "uint256"
        }
      ],
      "stateMutability": "view",
      "type": "function"
    },
    {
      "inputs": [
        {
          "internalType": "uint256",
          "name": "",
          "type": "uint256"
        }
      ],
      "name": "courses",
      "outputs": [
        {
          "internalType": "uint256",
          "name": "id",
          "type": "uint256"
        },
        {
          "internalType": "address payable",
          "name": "instructor",
          "type": "address"
        },
        {
          "internalType": "string",
          "name": "title",
          "type": "string"
        },
        {
          "internalType": "string",
          "name": "contentURI",
          "type": "string"
        },
        {
          "internalType": "uint256",
          "name": "price",
          "type": "uint256"
        },
        {
          "internalType": "bool",
          "name": "isPublished",
          "type": "bool"
        }
      ],
      "stateMutability": "view",
      "type": "function"
    },
    {
      "inputs": [
        {
          "internalType": "address",
          "name": "",
          "type": "address"
        },
        {
          "internalType": "uint256",
          "name": "",
          "type": "uint256"
        }
      ],
      "name": "enrolledCourses",
      "outputs": [
        {
          "internalType": "bool",
          "name": "",
          "type": "bool"
        }
      ],
      "stateMutability": "view",
      "type": "function"
    },
    {
      "inputs": [
        {
          "internalType": "string",
          "name": "_title",
          "type": "string"
        },
        {
          "internalType": "string",
          "name": "_contentURI",
          "type": "string"
        },
        {
          "internalType": "uint256",
          "name": "_price",
          "type": "uint256"
        }
      ],
      "name": "createCourse",
      "outputs": [],
      "stateMutability": "nonpayable",
      "type": "function"
    },
    {
      "inputs": [
        {
          "internalType": "uint256",
          "name": "_courseId",
          "type": "uint256"
        }
      ],
      "name": "purchaseCourse",
      "outputs": [],
      "stateMutability": "payable",
      "type": "function"
    },
    {
      "inputs": [
        {
          "internalType": "uint256",
          "name": "_courseId",
          "type": "uint256"
        }
      ],
      "name": "hasPurchased",
      "outputs": [
        {
          "internalType": "bool",
          "name": "",
          "type": "bool"
        }
      ],
      "stateMutability": "view",
      "type": "function"
    }
  ],
  "bytecode": "0x608060405234801561001057600080fd5b50610f4e806100206000396000f3fe6080604052600436106100555760003560e01c806345e689c81461005a578063660551591461009757806396f979d2146100c2578063a4adb24b14610104578063cd1319381461012d578063ea54a32314610149575b600080fd5b34801561006657600080fd5b50610081600480360381019061007c9190610a40565b610186565b60405161008e9190610b5e565b60405180910390f35b3480156100a357600080fd5b506100ac6101ed565b6040516100b99190610bb9565b60405180910390f35b3480156100ce57600080fd5b506100e960048036038101906100e49190610a40565b6101f3565b6040516100fb96959493929190610bfd565b60405180910390f35b34801561011057600080fd5b5061012b600480360381019061012691906109c1565b61036c565b005b61014760048036038101906101429190610a40565b6104db565b005b34801561015557600080fd5b50610170600480360381019061016b9190610985565b610821565b60405161017d9190610b5e565b60405180910390f35b6000600260003373ffffffffffffffffffffffffffffffffffffffff1673ffffffffffffffffffffffffffffffffffffffff168152602001908152602001600020600083815260200190815260200160002060009054906101000a900460ff169050919050565b60005481565b60016020528060005260406000206000915090508060000154908060010160009054906101000a900473ffffffffffffffffffffffffffffffffffffffff169080600201805461024290610dd1565b80601f016020809104026020016040519081016040528092919081815260200182805461026e90610dd1565b80156102bb5780601f10610290576101008083540402835291602001916102bb565b820191906000526020600020905b81548152906001019060200180831161029e57829003601f168201915b5050505050908060030180546102d090610dd1565b80601f01602080910402602001604051908101604052809291908181526020018280546102fc90610dd1565b80156103495780601f1061031e57610100808354040283529160200191610349565b820191906000526020600020905b81548152906001019060200180831161032c57829003601f168201915b5050505050908060040154908060050160009054906101000a900460ff16905086565b60008081548092919061037e90610e03565b91905055506040518060c0016040528060005481526020013373ffffffffffffffffffffffffffffffffffffffff1681526020018481526020018381526020018281526020016001151581525060016000805481526020019081526020016000206000820151816000015560208201518160010160006101000a81548173ffffffffffffffffffffffffffffffffffffffff021916908373ffffffffffffffffffffffffffffffffffffffff160217905550604082015181600201908051906020019061044c929190610850565b506060820151816003019080519060200190610469929190610850565b506080820151816004015560a08201518160050160006101000a81548160ff0219169083151502179055509050507f4aef92db777bdc6252138a7a07684420ea0a02c4704c896bfe217e76a33d7e656000548483336040516104ce9493929190610c6c565b60405180910390a1505050565b6000600160008381526020019081526020016000206040518060c0016040529081600082015481526020016001820160009054906101000a900473ffffffffffffffffffffffffffffffffffffffff1673ffffffffffffffffffffffffffffffffffffffff1673ffffffffffffffffffffffffffffffffffffffff16815260200160028201805461056b90610dd1565b80601f016020809104026020016040519081016040528092919081815260200182805461059790610dd1565b80156105e45780601f106105b9576101008083540402835291602001916105e4565b820191906000526020600020905b8154815290600101906020018083116105c757829003601f168201915b505050505081526020016003820180546105fd90610dd1565b80601f016020809104026020016040519081016040528092919081815260200182805461062990610dd1565b80156106765780601f1061064b57610100808354040283529160200191610676565b820191906000526020600020905b81548152906001019060200180831161065957829003601f168201915b50505050508152602001600482015481526020016005820160009054906101000a900460ff16151515158152505090508060a001516106ea576040517f08c379a00000000000000000000000000000000000000000000000000000000081526004016106e190610b99565b60405180910390fd5b80608001513414610730576040517f08c379a000000000000000000000000000000000000000000000000000000000815260040161072790610b79565b60405180910390fd5b6001600260003373ffffffffffffffffffffffffffffffffffffffff1673ffffffffffffffffffffffffffffffffffffffff168152602001908152602001600020600084815260200190815260200160002060006101000a81548160ff021916908315150217905550806020015173ffffffffffffffffffffffffffffffffffffffff166108fc349081150290604051600060405180830381858888f193505050501580156107e3573d6000803e3d6000fd5b507f8120f2f8a682e2fd88bad8beb5760b02b7fec7a59d2d9bebb84b3e277bc152d28233604051610815929190610bd4565b60405180910390a15050565b60026020528160005260406000206020528060005260406000206000915091509054906101000a900460ff1681565b82805461085c90610dd1565b90600052602060002090601f01602090048101928261087e57600085556108c5565b82601f1061089757805160ff19168380011785556108c5565b828001600101855582156108c5579182015b828111156108c45782518255916020019190600101906108a9565b5b5090506108d291906108d6565b5090565b5b808211156108ef5760008160009055506001016108d7565b5090565b600061090661090184610ce9565b610cb8565b90508281526020810184848401111561091e57600080fd5b610929848285610d8f565b509392505050565b60008135905061094081610eea565b92915050565b600082601f83011261095757600080fd5b81356109678482602086016108f3565b91505092915050565b60008135905061097f81610f01565b92915050565b6000806040838503121561099857600080fd5b60006109a685828601610931565b92505060206109b785828601610970565b9150509250929050565b6000806000606084860312156109d657600080fd5b600084013567ffffffffffffffff8111156109f057600080fd5b6109fc86828701610946565b935050602084013567ffffffffffffffff811115610a1957600080fd5b610a2586828701610946565b9250506040610a3686828701610970565b9150509250925092565b600060208284031215610a5257600080fd5b6000610a6084828501610970565b91505092915050565b610a7281610d47565b82525050565b610a8181610d35565b82525050565b610a9081610d59565b82525050565b6000610aa182610d19565b610aab8185610d24565b9350610abb818560208601610d9e565b610ac481610ed9565b840191505092915050565b6000610adc601483610d24565b91507f496e636f72726563742076616c75652073656e740000000000000000000000006000830152602082019050919050565b6000610b1c601483610d24565b91507f436f75727365206e6f7420617661696c61626c650000000000000000000000006000830152602082019050919050565b610b5881610d85565b82525050565b6000602082019050610b736000830184610a87565b92915050565b60006020820190508181036000830152610b9281610acf565b9050919050565b60006020820190508181036000830152610bb281610b0f565b9050919050565b6000602082019050610bce6000830184610b4f565b92915050565b6000604082019050610be96000830185610b4f565b610bf66020830184610a78565b9392505050565b600060c082019050610c126000830189610b4f565b610c1f6020830188610a69565b8181036040830152610c318187610a96565b90508181036060830152610c458186610a96565b9050610c546080830185610b4f565b610c6160a0830184610a87565b979650505050505050565b6000608082019050610c816000830187610b4f565b8181036020830152610c938186610a96565b9050610ca26040830185610b4f565b610caf6060830184610a78565b95945050505050565b6000604051905081810181811067ffffffffffffffff82111715610cdf57610cde610eaa565b5b8060405250919050565b600067ffffffffffffffff821115610d0457610d03610eaa565b5b601f19601f8301169050602081019050919050565b600081519050919050565b600082825260208201905092915050565b6000610d4082610d65565b9050919050565b6000610d5282610d65565b9050919050565b60008115159050919050565b600073ffffffffffffffffffffffffffffffffffffffff82169050919050565b6000819050919050565b82818337600083830152505050565b60005b83811015610dbc578082015181840152602081019050610da1565b83811115610dcb576000848401525b50505050565b60006002820490506001821680610de957607f821691505b60208210811415610dfd57610dfc610e7b565b5b50919050565b6000610e0e82610d85565b91507fffffffffffffffffffffffffffffffffffffffffffffffffffffffffffffffff821415610e4157610e40610e4c565b5b600182019050919050565b7f4e487b7100000000000000000000000000000000000000000000000000000000600052601160045260246000fd5b7f4e487b7100000000000000000000000000000000000000000000000000000000600052602260045260246000fd5b7f4e487b7100000000000000000000000000000000000000000000000000000000600052604160045260246000fd5b6000601f19601f8301169050919050565b610ef381610d35565b8114610efe57600080fd5b50565b610f0a81610d85565b8114610f1557600080fd5b5056fea26469706673582212204db608dac7b6e09d61d11a3f2d677f2726b8302bb2facb3099ff531feb366ab264736f6c63430008000033",
  "immutableReferences": {},
  "source": "// SPDX-License-Identifier: MIT\r\npragma solidity ^0.8.0;\r\n\r\ncontract CourseMarketplace {\r\n    struct Course {\r\n        uint id;\r\n        address payable instructor;\r\n        string title;\r\n        string contentURI;\r\n        uint price;\r\n        bool isPublished;\r\n    }\r\n\r\n    uint public courseCount;\r\n    mapping(uint => Course) public courses;\r\n    mapping(address => mapping(uint => bool)) public enrolledCourses;\r\n\r\n    event CourseCreated(uint id, string title, uint price, address instructor);\r\n    event CoursePurchased(uint courseId, address buyer);\r\n\r\n    // Create a new course (only instructors can do this)\r\n    function createCourse(string memory _title, string memory _contentURI, uint _price) public {\r\n        courseCount++;\r\n        courses[courseCount] = Course(courseCount, payable(msg.sender), _title, _contentURI, _price, true);\r\n        emit CourseCreated(courseCount, _title, _price, msg.sender);\r\n    }\r\n\r\n    // Buy a course\r\n    function purchaseCourse(uint _courseId) public payable {\r\n        Course memory course = courses[_courseId];\r\n        require(course.isPublished, \"Course not available\");\r\n        require(msg.value == course.price, \"Incorrect value sent\");\r\n\r\n        enrolledCourses[msg.sender][_courseId] = true;\r\n        course.instructor.transfer(msg.value);\r\n\r\n        emit CoursePurchased(_courseId, msg.sender);\r\n    }\r\n\r\n    // Check if the user has purchased the course\r\n    function hasPurchased(uint _courseId) public view returns (bool) {\r\n        return enrolledCourses[msg.sender][_courseId];\r\n    }\r\n}\r\n",
  "sourcePath": "C:\\Users\\utshav\\Desktop\\course-management-app\\contracts\\CourseMarketplace.sol",
  "compiler": {
    "name": "solc",
    "version": "0.8.0+commit.c7dfd78e.Emscripten.clang"
  },
  "schemaVersion": "3.4.16",
  "updatedAt": "2024-10-22T09:45:11.940Z",
  "devdoc": {
    "kind": "dev",
    "methods": {},
    "version": 1
  },
  "userdoc": {
    "kind": "user",
    "methods": {},
    "version": 1
  }
}